{
	"data": {
		"bytecode": {
			"linkReferences": {},
			"object": "608060405234801561001057600080fd5b506104e9806100206000396000f3fe608060405234801561001057600080fd5b50600436106100885760003560e01c80637c6688441161005b5780637c668844146101115780639deb959014610141578063b06fcde714610171578063d3eea0941461017b57610088565b80630494cd9a1461008d5780630c7375f1146100bd57806355241077146100d9578063578ab9a2146100f5575b600080fd5b6100a760048036038101906100a29190610374565b610197565b6040516100b4919061041d565b60405180910390f35b6100d760048036038101906100d291906103ce565b6101b7565b005b6100f360048036038101906100ee91906103a1565b6101f8565b005b61010f600480360381019061010a91906103a1565b610226565b005b61012b600480360381019061012691906103a1565b610254565b604051610138919061041d565b60405180910390f35b61015b600480360381019061015691906103ce565b610274565b604051610168919061041d565b60405180910390f35b6101796102b0565b005b610195600480360381019061019091906103ce565b610309565b005b60016020528060005260406000206000915054906101000a900460ff1681565b600060026000848152602001908152602001600020600083815260200190815260200160002060006101000a81548160ff0219169083151502179055505050565b600160008083815260200190815260200160002060006101000a81548160ff02191690831515021790555050565b600080600083815260200190815260200160002060006101000a81548160ff02191690831515021790555050565b60006020528060005260406000206000915054906101000a900460ff1681565b600060026000848152602001908152602001600020600083815260200190815260200160002060009054906101000a900460ff16905092915050565b60018060003373ffffffffffffffffffffffffffffffffffffffff1673ffffffffffffffffffffffffffffffffffffffff16815260200190815260200160002060006101000a81548160ff021916908315150217905550565b600160026000848152602001908152602001600020600083815260200190815260200160002060006101000a81548160ff0219169083151502179055505050565b60008135905061035981610485565b92915050565b60008135905061036e8161049c565b92915050565b60006020828403121561038a57610389610480565b5b60006103988482850161034a565b91505092915050565b6000602082840312156103b7576103b6610480565b5b60006103c58482850161035f565b91505092915050565b600080604083850312156103e5576103e4610480565b5b60006103f38582860161035f565b92505060206104048582860161035f565b9150509250929050565b6104178161044a565b82525050565b6000602082019050610432600083018461040e565b92915050565b600061044382610456565b9050919050565b60008115159050919050565b600073ffffffffffffffffffffffffffffffffffffffff82169050919050565b6000819050919050565b600080fd5b61048e81610438565b811461049957600080fd5b50565b6104a581610476565b81146104b057600080fd5b5056fea26469706673582212200a1172b29887757daa3ad3d53d4b1e1e59071897a757a1e49cf39c74f1c8a9bc64736f6c63430008070033",
			"opcodes": "PUSH1 0x80 PUSH1 0x40 MSTORE CALLVALUE DUP1 ISZERO PUSH2 0x10 JUMPI PUSH1 0x0 DUP1 REVERT JUMPDEST POP PUSH2 0x4E9 DUP1 PUSH2 0x20 PUSH1 0x0 CODECOPY PUSH1 0x0 RETURN INVALID PUSH1 0x80 PUSH1 0x40 MSTORE CALLVALUE DUP1 ISZERO PUSH2 0x10 JUMPI PUSH1 0x0 DUP1 REVERT JUMPDEST POP PUSH1 0x4 CALLDATASIZE LT PUSH2 0x88 JUMPI PUSH1 0x0 CALLDATALOAD PUSH1 0xE0 SHR DUP1 PUSH4 0x7C668844 GT PUSH2 0x5B JUMPI DUP1 PUSH4 0x7C668844 EQ PUSH2 0x111 JUMPI DUP1 PUSH4 0x9DEB9590 EQ PUSH2 0x141 JUMPI DUP1 PUSH4 0xB06FCDE7 EQ PUSH2 0x171 JUMPI DUP1 PUSH4 0xD3EEA094 EQ PUSH2 0x17B JUMPI PUSH2 0x88 JUMP JUMPDEST DUP1 PUSH4 0x494CD9A EQ PUSH2 0x8D JUMPI DUP1 PUSH4 0xC7375F1 EQ PUSH2 0xBD JUMPI DUP1 PUSH4 0x55241077 EQ PUSH2 0xD9 JUMPI DUP1 PUSH4 0x578AB9A2 EQ PUSH2 0xF5 JUMPI JUMPDEST PUSH1 0x0 DUP1 REVERT JUMPDEST PUSH2 0xA7 PUSH1 0x4 DUP1 CALLDATASIZE SUB DUP2 ADD SWAP1 PUSH2 0xA2 SWAP2 SWAP1 PUSH2 0x374 JUMP JUMPDEST PUSH2 0x197 JUMP JUMPDEST PUSH1 0x40 MLOAD PUSH2 0xB4 SWAP2 SWAP1 PUSH2 0x41D JUMP JUMPDEST PUSH1 0x40 MLOAD DUP1 SWAP2 SUB SWAP1 RETURN JUMPDEST PUSH2 0xD7 PUSH1 0x4 DUP1 CALLDATASIZE SUB DUP2 ADD SWAP1 PUSH2 0xD2 SWAP2 SWAP1 PUSH2 0x3CE JUMP JUMPDEST PUSH2 0x1B7 JUMP JUMPDEST STOP JUMPDEST PUSH2 0xF3 PUSH1 0x4 DUP1 CALLDATASIZE SUB DUP2 ADD SWAP1 PUSH2 0xEE SWAP2 SWAP1 PUSH2 0x3A1 JUMP JUMPDEST PUSH2 0x1F8 JUMP JUMPDEST STOP JUMPDEST PUSH2 0x10F PUSH1 0x4 DUP1 CALLDATASIZE SUB DUP2 ADD SWAP1 PUSH2 0x10A SWAP2 SWAP1 PUSH2 0x3A1 JUMP JUMPDEST PUSH2 0x226 JUMP JUMPDEST STOP JUMPDEST PUSH2 0x12B PUSH1 0x4 DUP1 CALLDATASIZE SUB DUP2 ADD SWAP1 PUSH2 0x126 SWAP2 SWAP1 PUSH2 0x3A1 JUMP JUMPDEST PUSH2 0x254 JUMP JUMPDEST PUSH1 0x40 MLOAD PUSH2 0x138 SWAP2 SWAP1 PUSH2 0x41D JUMP JUMPDEST PUSH1 0x40 MLOAD DUP1 SWAP2 SUB SWAP1 RETURN JUMPDEST PUSH2 0x15B PUSH1 0x4 DUP1 CALLDATASIZE SUB DUP2 ADD SWAP1 PUSH2 0x156 SWAP2 SWAP1 PUSH2 0x3CE JUMP JUMPDEST PUSH2 0x274 JUMP JUMPDEST PUSH1 0x40 MLOAD PUSH2 0x168 SWAP2 SWAP1 PUSH2 0x41D JUMP JUMPDEST PUSH1 0x40 MLOAD DUP1 SWAP2 SUB SWAP1 RETURN JUMPDEST PUSH2 0x179 PUSH2 0x2B0 JUMP JUMPDEST STOP JUMPDEST PUSH2 0x195 PUSH1 0x4 DUP1 CALLDATASIZE SUB DUP2 ADD SWAP1 PUSH2 0x190 SWAP2 SWAP1 PUSH2 0x3CE JUMP JUMPDEST PUSH2 0x309 JUMP JUMPDEST STOP JUMPDEST PUSH1 0x1 PUSH1 0x20 MSTORE DUP1 PUSH1 0x0 MSTORE PUSH1 0x40 PUSH1 0x0 KECCAK256 PUSH1 0x0 SWAP2 POP SLOAD SWAP1 PUSH2 0x100 EXP SWAP1 DIV PUSH1 0xFF AND DUP2 JUMP JUMPDEST PUSH1 0x0 PUSH1 0x2 PUSH1 0x0 DUP5 DUP2 MSTORE PUSH1 0x20 ADD SWAP1 DUP2 MSTORE PUSH1 0x20 ADD PUSH1 0x0 KECCAK256 PUSH1 0x0 DUP4 DUP2 MSTORE PUSH1 0x20 ADD SWAP1 DUP2 MSTORE PUSH1 0x20 ADD PUSH1 0x0 KECCAK256 PUSH1 0x0 PUSH2 0x100 EXP DUP2 SLOAD DUP2 PUSH1 0xFF MUL NOT AND SWAP1 DUP4 ISZERO ISZERO MUL OR SWAP1 SSTORE POP POP POP JUMP JUMPDEST PUSH1 0x1 PUSH1 0x0 DUP1 DUP4 DUP2 MSTORE PUSH1 0x20 ADD SWAP1 DUP2 MSTORE PUSH1 0x20 ADD PUSH1 0x0 KECCAK256 PUSH1 0x0 PUSH2 0x100 EXP DUP2 SLOAD DUP2 PUSH1 0xFF MUL NOT AND SWAP1 DUP4 ISZERO ISZERO MUL OR SWAP1 SSTORE POP POP JUMP JUMPDEST PUSH1 0x0 DUP1 PUSH1 0x0 DUP4 DUP2 MSTORE PUSH1 0x20 ADD SWAP1 DUP2 MSTORE PUSH1 0x20 ADD PUSH1 0x0 KECCAK256 PUSH1 0x0 PUSH2 0x100 EXP DUP2 SLOAD DUP2 PUSH1 0xFF MUL NOT AND SWAP1 DUP4 ISZERO ISZERO MUL OR SWAP1 SSTORE POP POP JUMP JUMPDEST PUSH1 0x0 PUSH1 0x20 MSTORE DUP1 PUSH1 0x0 MSTORE PUSH1 0x40 PUSH1 0x0 KECCAK256 PUSH1 0x0 SWAP2 POP SLOAD SWAP1 PUSH2 0x100 EXP SWAP1 DIV PUSH1 0xFF AND DUP2 JUMP JUMPDEST PUSH1 0x0 PUSH1 0x2 PUSH1 0x0 DUP5 DUP2 MSTORE PUSH1 0x20 ADD SWAP1 DUP2 MSTORE PUSH1 0x20 ADD PUSH1 0x0 KECCAK256 PUSH1 0x0 DUP4 DUP2 MSTORE PUSH1 0x20 ADD SWAP1 DUP2 MSTORE PUSH1 0x20 ADD PUSH1 0x0 KECCAK256 PUSH1 0x0 SWAP1 SLOAD SWAP1 PUSH2 0x100 EXP SWAP1 DIV PUSH1 0xFF AND SWAP1 POP SWAP3 SWAP2 POP POP JUMP JUMPDEST PUSH1 0x1 DUP1 PUSH1 0x0 CALLER PUSH20 0xFFFFFFFFFFFFFFFFFFFFFFFFFFFFFFFFFFFFFFFF AND PUSH20 0xFFFFFFFFFFFFFFFFFFFFFFFFFFFFFFFFFFFFFFFF AND DUP2 MSTORE PUSH1 0x20 ADD SWAP1 DUP2 MSTORE PUSH1 0x20 ADD PUSH1 0x0 KECCAK256 PUSH1 0x0 PUSH2 0x100 EXP DUP2 SLOAD DUP2 PUSH1 0xFF MUL NOT AND SWAP1 DUP4 ISZERO ISZERO MUL OR SWAP1 SSTORE POP JUMP JUMPDEST PUSH1 0x1 PUSH1 0x2 PUSH1 0x0 DUP5 DUP2 MSTORE PUSH1 0x20 ADD SWAP1 DUP2 MSTORE PUSH1 0x20 ADD PUSH1 0x0 KECCAK256 PUSH1 0x0 DUP4 DUP2 MSTORE PUSH1 0x20 ADD SWAP1 DUP2 MSTORE PUSH1 0x20 ADD PUSH1 0x0 KECCAK256 PUSH1 0x0 PUSH2 0x100 EXP DUP2 SLOAD DUP2 PUSH1 0xFF MUL NOT AND SWAP1 DUP4 ISZERO ISZERO MUL OR SWAP1 SSTORE POP POP POP JUMP JUMPDEST PUSH1 0x0 DUP2 CALLDATALOAD SWAP1 POP PUSH2 0x359 DUP2 PUSH2 0x485 JUMP JUMPDEST SWAP3 SWAP2 POP POP JUMP JUMPDEST PUSH1 0x0 DUP2 CALLDATALOAD SWAP1 POP PUSH2 0x36E DUP2 PUSH2 0x49C JUMP JUMPDEST SWAP3 SWAP2 POP POP JUMP JUMPDEST PUSH1 0x0 PUSH1 0x20 DUP3 DUP5 SUB SLT ISZERO PUSH2 0x38A JUMPI PUSH2 0x389 PUSH2 0x480 JUMP JUMPDEST JUMPDEST PUSH1 0x0 PUSH2 0x398 DUP5 DUP3 DUP6 ADD PUSH2 0x34A JUMP JUMPDEST SWAP2 POP POP SWAP3 SWAP2 POP POP JUMP JUMPDEST PUSH1 0x0 PUSH1 0x20 DUP3 DUP5 SUB SLT ISZERO PUSH2 0x3B7 JUMPI PUSH2 0x3B6 PUSH2 0x480 JUMP JUMPDEST JUMPDEST PUSH1 0x0 PUSH2 0x3C5 DUP5 DUP3 DUP6 ADD PUSH2 0x35F JUMP JUMPDEST SWAP2 POP POP SWAP3 SWAP2 POP POP JUMP JUMPDEST PUSH1 0x0 DUP1 PUSH1 0x40 DUP4 DUP6 SUB SLT ISZERO PUSH2 0x3E5 JUMPI PUSH2 0x3E4 PUSH2 0x480 JUMP JUMPDEST JUMPDEST PUSH1 0x0 PUSH2 0x3F3 DUP6 DUP3 DUP7 ADD PUSH2 0x35F JUMP JUMPDEST SWAP3 POP POP PUSH1 0x20 PUSH2 0x404 DUP6 DUP3 DUP7 ADD PUSH2 0x35F JUMP JUMPDEST SWAP2 POP POP SWAP3 POP SWAP3 SWAP1 POP JUMP JUMPDEST PUSH2 0x417 DUP2 PUSH2 0x44A JUMP JUMPDEST DUP3 MSTORE POP POP JUMP JUMPDEST PUSH1 0x0 PUSH1 0x20 DUP3 ADD SWAP1 POP PUSH2 0x432 PUSH1 0x0 DUP4 ADD DUP5 PUSH2 0x40E JUMP JUMPDEST SWAP3 SWAP2 POP POP JUMP JUMPDEST PUSH1 0x0 PUSH2 0x443 DUP3 PUSH2 0x456 JUMP JUMPDEST SWAP1 POP SWAP2 SWAP1 POP JUMP JUMPDEST PUSH1 0x0 DUP2 ISZERO ISZERO SWAP1 POP SWAP2 SWAP1 POP JUMP JUMPDEST PUSH1 0x0 PUSH20 0xFFFFFFFFFFFFFFFFFFFFFFFFFFFFFFFFFFFFFFFF DUP3 AND SWAP1 POP SWAP2 SWAP1 POP JUMP JUMPDEST PUSH1 0x0 DUP2 SWAP1 POP SWAP2 SWAP1 POP JUMP JUMPDEST PUSH1 0x0 DUP1 REVERT JUMPDEST PUSH2 0x48E DUP2 PUSH2 0x438 JUMP JUMPDEST DUP2 EQ PUSH2 0x499 JUMPI PUSH1 0x0 DUP1 REVERT JUMPDEST POP JUMP JUMPDEST PUSH2 0x4A5 DUP2 PUSH2 0x476 JUMP JUMPDEST DUP2 EQ PUSH2 0x4B0 JUMPI PUSH1 0x0 DUP1 REVERT JUMPDEST POP JUMP INVALID LOG2 PUSH5 0x6970667358 0x22 SLT KECCAK256 EXP GT PUSH19 0xB29887757DAA3AD3D53D4B1E1E59071897A757 LOG1 0xE4 SWAP13 RETURN SWAP13 PUSH21 0xF1C8A9BC64736F6C63430008070033000000000000 "
		},
		"gasEstimates": {
			"creation": {
				"codeDepositCost": "251400",
				"executionCost": "294",
				"totalCost": "251694"
			},
			"external": {
				"addressMapping(address)": "2846",
				"getUintUintBool(uint256,uint256)": "infinite",
				"myMapping(uint256)": "2796",
				"resetUintUintBool(uint256,uint256)": "infinite",
				"resetValue(uint256)": "24818",
				"setAddressValue()": "24544",
				"setUintUintBool(uint256,uint256)": "infinite",
				"setValue(uint256)": "24796"
			}
		},
		"methodIdentifiers": {
			"addressMapping(address)": "0494cd9a",
			"getUintUintBool(uint256,uint256)": "9deb9590",
			"myMapping(uint256)": "7c668844",
			"resetUintUintBool(uint256,uint256)": "0c7375f1",
			"resetValue(uint256)": "578ab9a2",
			"setAddressValue()": "b06fcde7",
			"setUintUintBool(uint256,uint256)": "d3eea094",
			"setValue(uint256)": "55241077"
		}
	},
	"abi": [
		{
			"inputs": [
				{
					"internalType": "address",
					"name": "",
					"type": "address"
				}
			],
			"name": "addressMapping",
			"outputs": [
				{
					"internalType": "bool",
					"name": "",
					"type": "bool"
				}
			],
			"stateMutability": "view",
			"type": "function"
		},
		{
			"inputs": [
				{
					"internalType": "uint256",
					"name": "_idx1",
					"type": "uint256"
				},
				{
					"internalType": "uint256",
					"name": "_idx2",
					"type": "uint256"
				}
			],
			"name": "getUintUintBool",
			"outputs": [
				{
					"internalType": "bool",
					"name": "",
					"type": "bool"
				}
			],
			"stateMutability": "view",
			"type": "function"
		},
		{
			"inputs": [
				{
					"internalType": "uint256",
					"name": "",
					"type": "uint256"
				}
			],
			"name": "myMapping",
			"outputs": [
				{
					"internalType": "bool",
					"name": "",
					"type": "bool"
				}
			],
			"stateMutability": "view",
			"type": "function"
		},
		{
			"inputs": [
				{
					"internalType": "uint256",
					"name": "_idx1",
					"type": "uint256"
				},
				{
					"internalType": "uint256",
					"name": "_idx2",
					"type": "uint256"
				}
			],
			"name": "resetUintUintBool",
			"outputs": [],
			"stateMutability": "nonpayable",
			"type": "function"
		},
		{
			"inputs": [
				{
					"internalType": "uint256",
					"name": "_index",
					"type": "uint256"
				}
			],
			"name": "resetValue",
			"outputs": [],
			"stateMutability": "nonpayable",
			"type": "function"
		},
		{
			"inputs": [],
			"name": "setAddressValue",
			"outputs": [],
			"stateMutability": "nonpayable",
			"type": "function"
		},
		{
			"inputs": [
				{
					"internalType": "uint256",
					"name": "_idx1",
					"type": "uint256"
				},
				{
					"internalType": "uint256",
					"name": "_idx2",
					"type": "uint256"
				}
			],
			"name": "setUintUintBool",
			"outputs": [],
			"stateMutability": "nonpayable",
			"type": "function"
		},
		{
			"inputs": [
				{
					"internalType": "uint256",
					"name": "_index",
					"type": "uint256"
				}
			],
			"name": "setValue",
			"outputs": [],
			"stateMutability": "nonpayable",
			"type": "function"
		}
	]
}